:03000000020BD818
:0C0BD800787FE4F6D8FD758112020C1F36
:100DE30053494D504C450043414C43554C41544F9E
:0D0DF30052004D617468204572726F7200ED
:0B0E4D0002090000020B000001080079
:100E1B007F80120E597F38120E597F01120E597FA7
:090E2B000C120E597F06020E594B
:0A0E59008FA0C2B0120D97C2B222A2
:100E0000AE10AF117C00120D118E0E8F0FEF24303B
:010E1000FFE2
:0A0E11008FA0D2B0120D97C2B222DA
:060D9700C2B1D2B27F14CC
:100D9D00E4FDFCEFFBC3ED9BEC94005015E4FBFA76
:100DAD000BBB00010ABA13F8BB88F50DBD00010C91
:020DBD0080E1D3
:010DBF002211
:100DC0008B108A118912AB10AA11A912120CE6FF1E
:100DD0006010120E1174012512F512E43511F5118F
:030DE00080E4228A
:100D66007590F0120E1B7F85120E597BFF7A0D7956
:100D7600E3120DC07FC3120E597BFF7A0D79EA127A
:100D86000DC07FC8120E347F01120E591208008062
:010D9600FB61
:10080000C290D293D292D29120943C7F20120E3487
:100810002094347F31120E11E5087015AE09AF0A2D
:10082000FC7D0A120CFFEF2401F50AE43EF5098075
:10083000DFAE0BAF0C7C007D0A120CFFEF2401F53C
:100840000CE43EF50B80C920953C7F20120E34202D
:1008500095347F32120E11E5087015AE09AF0AFC0F
:100860007D0A120CFFEF2402F50AE43EF50980DF51
:10087000AE0BAF0C7C007D0A120CFFEF2402F50CCE
:10088000E43EF50B80C920963C7F20120E34209662
:10089000347F33120E11E5087015AE09AF0AFC7DE6
:1008A0000A120CFFEF2403F50AE43EF50980DFAEDF
:1008B0000BAF0C7C007D0A120CFFEF2403F50CE457
:1008C0003EF50B80C92097157F20120E3420970D1E
:1008D0007508017F2B120E11750D2B80F0C291D27D
:1008E00093D292D29020943C7F20120E34209434E4
:1008F0007F34120E11E5087015AE09AF0AFC7D0AAF
:10090000120CFFEF2404F50AE43EF50980DFAE0B7C
:10091000AF0C7C007D0A120CFFEF2404F50CE43EC2
:10092000F50B80C920953C7F20120E342095347F32
:1009300035120E11E5087015AE09AF0AFC7D0A12DA
:100940000CFFEF2405F50AE43EF50980DFAE0BAF9E
:100950000C7C007D0A120CFFEF2405F50CE43EF53B
:100960000B80C920963C7F20120E342096347F36AF
:10097000120E11E5087015AE09AF0AFC7D0A120CC3
:10098000FFEF2406F50AE43EF50980DFAE0BAF0C5D
:100990007C007D0A120CFFEF2406F50CE43EF50BFB
:1009A00080C92097157F20120E3420970D750801FD
:1009B0007F2D120E11750D2D80F0C292D293D29020
:1009C000D29120943C7F20120E342094347F371231
:1009D0000E11E5087015AE09AF0AFC7D0A120CFF76
:1009E000EF2407F50AE43EF50980DFAE0BAF0C7C7F
:1009F000007D0A120CFFEF2407F50CE43EF50B8096
:100A0000C920953C7F20120E342095347F38120E79
:100A100011E5087015AE09AF0AFC7D0A120CFFEF54
:100A20002408F50AE43EF50980DFAE0BAF0C7C002C
:100A30007D0A120CFFEF2408F50CE43EF50B80C98B
:100A400020963C7F20120E342096347F39120E11EE
:100A5000E5087015AE09AF0AFC7D0A120CFFEF2401
:100A600009F50AE43EF50980DFAE0BAF0C7C007D92
:100A70000A120CFFEF2409F50CE43EF50B80C920A7
:100A800097157F20120E3420970D7508017F2F12C5
:100A90000E11750D2F80F0C293D290D292D2912078
:100AA000941A7F20120E342094127F01120E59E402
:100AB000F50BF50CF509F50AF50880EB2095327F6A
:100AC00020120E3420952A7F30120E11E508701086
:100AD000AE09AF0AFC7D0A120CFF8E098F0A80E472
:100AE000AE0BAF0C7C007D0A120CFF8E0B8F0C80BE
:100AF000D32096127F20120E3420960A7F3D120ECC
:100B000011120C6480F32097157F20120E34209769
:0F0B10000D7508017F2A120E11750D2A80F02233
:100E3400E4FEEEC39F5011E4FDFC0DBD00010CBCAB
:080E440005F8BDDCF50E80EAA3
:010E4C002283
:100C64007FC0120E59E50DB42B0DE50A250CFFE5E6
:100C740009350BFE120B1FE50DB42D29D3E50A959A
:100C84000CE509950B400BE50A950CFFE509950B5E
:100C9400800F7F2D120E11C3E50C950AFFE50B950D
:100CA40009FE120B1FE50DB42F24E50C450B601053
:100CB400AC0BAD0CAE09AF0A120D11120B1F800E56
:100CC4007F01120E597BFF7A0D79F5120DC0E50DE7
:100CD400B4780EAC0BAD0CAE09AF0A120CFF120BBC
:020CE4001F22CD
:100B1F008E108F11D3E511940FE510942740187C98
:100B2F00277D10120E06AE10AF117C277D10120D0F
:100B3F00118C108D118015D3E51194E7E5109403F6
:100B4F004026E511940FE5109427501CAE10AF11FD
:100B5F007C037DE8120E06AE10AF117C037DE81208
:100B6F000D118C108D118015D3E5119463E5109440
:100B7F00004020E51194E7E510940350167D6412B0
:100B8F000E00AE10AF117C007D64120D118C108D14
:100B9F00118015D3E5119409E51094004022E51159
:100BAF009463E510940050187D0A120E00AE10AF3A
:100BBF00117C007D0A120D118C0E8D0FE50F800236
:090BCF00E5112430FF120E112281
:100BE400020D66E493A3F8E493A34003F68001F2B4
:100BF40008DFF48029E493A3F85407240CC8C33312
:100C0400C4540F4420C8834004F456800146F6DFE0
:100C1400E4800B0102040810204080900E4DE47E15
:100C2400019360BCA3FF543F30E509541FFEE493D5
:100C3400A360010ECF54C025E060A840B8E493A39C
:100C4400FAE493A3F8E493A3C8C582C8CAC583CAC7
:100C5400F0A3C8C582C8CAC583CADFE9DEE780BE7F
:010E58000099
:100CE600BB010689828A83E0225002E722BBFE020C
:090CF600E32289828A83E493223F
:100CFF00EF8DF0A4A8F0CF8CF0A428CE8DF0A42E09
:020D0F00FE22C2
:100D1100BC000BBE0029EF8DF084FFADF022E4CCC6
:100D2100F875F008EF2FFFEE33FEEC33FCEE9DEC8F
:100D3100984005FCEE9DFE0FD5F0E9E4CEFD22EDD5
:100D4100F8F5F0EE8420D21CFEADF075F008EF2F1F
:100D5100FFED33FD4007985006D5F0F222C398FD10
:050D61000FD5F0EA22AD
:00000001FF
